:020000040800F2
:100000002807002065010008591100087310000836
:1000100000000000000000000000000000000000E0
:100020000000000000000000000000005D1100085A
:1000300000000000000000005B1100085F110008D4
:1000400077010008770100087701000877010008B0
:1000500077010008770100087701000877010008A0
:100060007701000877010008770100087701000890
:100070007701000877010008000000007701000800
:1000800000000000DD11000800000000000000007A
:1000900077010008000000007701000877010008E0
:1000A0007701000877010008770100087701000850
:1000B00077010008770100080000000077010008C0
:1000C00000F002F800F03EF80CA030C80838241800
:1000D0002D18A246671EAB4654465D46AC4201D180
:1000E00000F030F87E460F3E0FCCB6460126334274
:1000F00000D0FB1AA246AB46334318473822000013
:1001000058220000103A02D378C878C1FAD85207B2
:1001100001D330C830C101D504680C6070470000BD
:100120000023002400250026103A01D378C1FBD813
:10013000520700D330C100D50B6070471FB51FBDFB
:1001400010B510BD00F07BF91146FFF7F7FF01F085
:10015000B3F800F093F903B4FFF7F2FF03BC00F02B
:1001600099F900000748804707480047FEE7FEE787
:10017000FEE7FEE7FEE7FEE704480549054A064BB1
:1001800070470000D9110008C100000828010020B4
:10019000280700202803002028030020FEB505467C
:1001A00010460C46184373D0AE468C460020AD1A5C
:1001B00001469C4167D36646002701243D46B61A96
:1001C0009D4102D313463A462124654676462F04C4
:1001D000360C3E432D0CB61A9D4104D3150C1B045E
:1001E0002B4312041034654676462F06360A3E43EA
:1001F0002D0AB61A9D4104D3150E1B022B43120281
:100200000834654676462F0736093E432D09B61A4F
:100210009D4104D3150F1B012B431201241D65467C
:100220007646AF07B6083E43AD08B61A9D4104D3E3
:10023000950F9B002B439200A41C65467646EF0762
:1002400076083E436D08B61A9D411AD392185B4159
:10025000641C16E00018764665464941B71A9D4170
:100260000191009009D36046B11A98418E468446A8
:10027000009801990025401C6941DD0752082A4376
:100280005B08641EE6D57246634603B0F0BDFFE727
:1002900000200146C046C0462A462346F5E701E055
:1002A00004C0091F0429FBD28B0701D50280801CE2
:1002B000C90700D00270704700290BD0C30702D0D5
:1002C0000270401C491E022904D3830702D5028014
:1002D000801C891EE3E70022EEE70022DFE7002210
:1002E00003098B422CD3030A8B4211D300239C4673
:1002F0004EE003460B433CD4002243088B4231D3EB
:1003000003098B421CD3030A8B4201D394463FE07E
:10031000C3098B4201D3CB01C01A524183098B42DE
:1003200001D38B01C01A524143098B4201D34B01C7
:10033000C01A524103098B4201D30B01C01A52412A
:10034000C3088B4201D3CB00C01A524183088B42B1
:1003500001D38B00C01A524143088B4201D34B009A
:10036000C01A5241411A00D201465241104670470C
:100370005DE0CA0F00D04942031000D34042534011
:1003800000229C4603098B422DD3030A8B4212D3D1
:10039000FC22890112BA030A8B420CD38901921103
:1003A0008B4208D3890192118B4204D389013AD040
:1003B000921100E08909C3098B4201D3CB01C01A15
:1003C000524183098B4201D38B01C01A5241430928
:1003D0008B4201D34B01C01A524103098B4201D316
:1003E0000B01C01A5241C3088B4201D3CB00C01A83
:1003F000524183088B4201D38B00C01A5241D9D29B
:1004000043088B4201D34B00C01A5241411A00D21B
:100410000146634652415B10104601D34042002B17
:1004200000D54942704763465B1000D3404201B596
:100430000020C046C04602BD7047704770477546F1
:1004400000F024F8AE46050069465346C008C000D7
:10045000854618B020B5FFF78FFE60BC002749081D
:10046000B6460026C0C5C0C5C0C5C0C5C0C5C0C54C
:10047000C0C5C0C5403D49008D46704710B5044613
:10048000C046C0462046FFF766FE10BD00487047D4
:10049000C800002001491820ABBEFEE7260002007C
:1004A000704772B6FEE7000070B5044600F0F2F83F
:1004B0000546601C02D004480078241800F0EAF8D1
:1004C000401BA042FAD370BD78000020F8B500238D
:1004D00003240125BDE032462E469E40B4463240FC
:1004E00079D00E79B607B60F012E01D0022E17D1A2
:1004F00086682746B6465E00B74000967646BE43FD
:10050000B646CF68009EB740764637438760466858
:100510006746BE430F79FF06FF0F9F403743476092
:100520000E79F643B6070ED0C6682746B4465E007D
:10053000B646B7406646BE43B4468F687646B74077
:1005400066463743C7600E79B607B60F022E14D140
:10055000DE08B60036180096366A5F07B446FE0E0F
:100560000F27B646B7406646BE43B4460F69764687
:10057000B74066463743009E376206682746B44652
:100580005E00B646B7406646BE430F79B446BF0725
:10059000BF0F7646B7406646374307604E68B603DE
:1005A000B60F55D02E4F7E6B2E437E639F082D4E87
:1005B000BF00BE190096B6680F27B4469E07360FD7
:1005C000B646B7406646BE4305273F07B446B84225
:1005D00002D1002715E03BE0234FB84201D10127AB
:1005E0000FE0224FB84201D102270AE0204FB84263
:1005F00001D1032705E01F4FB84201D1052700E0D4
:1006000006277646B74066463743009EB7601A4EC7
:1006100036684F689643FF0300D51643164F3E6079
:100620007E684F689643BF0300D51643124F7E6025
:10063000BE684F689643FF0200D516430E4FBE605A
:10064000FE684F689643BF0200D516430A4AD6603B
:100650005B1C0A681646DA4000D03CE7F8BD000093
:10066000001002400000014000040050000800504B
:10067000000C0050001C00500004014000690840BC
:1006800000D001207047002A01D08161704781624B
:100690007047000001488068704700007800002023
:1006A00002488168027889188160704778000020CC
:1006B00010B508480024016840221143016003205E
:1006C00000F00AF8002801D0012401E000F026F82B
:1006D000204610BD0020024070B504460D4D7D201F
:1006E0002978C000FFF7FBFD01460B480068FFF7C3
:1006F000F6FD00F081FB002809D1042C07D200226E
:100700002146401E00F022F800206C6070BD0120E0
:1007100070BD000078000020840000200448416B78
:10072000012211434163816B0204114381637047CD
:1007300000100240002805DBC106C90E01208840D8
:10074000014908607047000000E100E010B500F0CA
:1007500091FD10BDF8B50E46050038D05E48006822
:10076000C007C00FB04214D25B4C20684008400064
:1007700030432060FFF78EFF074605E0FFF78AFF52
:10078000C11B564881427AD82068C007C00FB042CA
:10079000F4D12878524C800705D5E068F0218843D1
:1007A000A9680843E0602878C00752D0686802282A
:1007B00006D0032807D0216801280AD0890504E063
:1007C0002168890301E021688901002903DB0120F8
:1007D000F8BD4907F9E7E168890889000143E1604C
:1007E000FFF758FF0746686802280AD0032814D08C
:1007F00001281ED029E0FFF74DFFC11B3748814279
:100800003DD8E0680007800F0228F4D121E0FFF70F
:1008100041FFC11B3148814231D8E0680007800F99
:100820000328F4D115E0FFF735FFC11B2B488142A7
:1008300025D8E0680007800F0128F4D109E0FFF710
:1008400029FFC11B2548814219D8E0680007800FA5
:10085000F5D121480168C907C90FB14217D901680C
:100860004908490031430160FFF714FF074608E0DB
:1008700005E0FFF70FFFC11B1848814201D9032093
:10088000F8BD15480068C007C00FB042F1D1287804
:10089000400706D5E068072109028843E968084354
:1008A000E0602878000707D5E0680721C90288437F
:1008B0002969C9000843E06000F01AF8E168094AB4
:1008C0000906090F515CC8400749086007480068DD
:1008D000FFF702FFF8BD000000200240881300006F
:1008E0000010024018230008840000207C00002033
:1008F00070B51A4AD3681A490C2018408D00042894
:100900000CD04E00082810D00C2810D050680004DD
:10091000410F0120C003491C884070BD1068C0060B
:1009200001D5084670BD284670BD304670BD98029E
:100930000C4C000F205C1B029C0FD368641CDB0373
:1009400001D5314603E01268D20600D4294600F0F2
:1009500079FC22460023FFF721FC70BD0010024005
:1009600000093D0028230008FEB505007ED0FE4C9E
:10097000E7680C20E668074001200004064028785C
:10098000C00747D0082F05D00C2F0AD10120000442
:10099000864206D1206880033CD568680028E5D0EF
:1009A00038E0012069680004814203D121680143D5
:1009B000216011E0052301221B0492049942216861
:1009C00002D111432160F1E7814321602168014098
:1009D0000091206890432060686800280DD0FFF7E0
:1009E00059FE009005E0FFF755FE0099401A642873
:1009F0007BD820688003F6D50CE0FFF74BFE009013
:100A000005E0FFF747FE0099401A6428F0D82068F7
:100A10008003F6D42878800756D50923E868042F88
:100A20000DD00C2F01D1002E09D000283CD0216818
:100A3000994301432160FFF72DFE064628E0216817
:100A4000490701D5002891D061681F221202914305
:100A50002A691202114361602168994301432160B0
:100A6000FFF746FFE16809060A0F00E0BFE1BF4952
:100A7000895CC840BE490860BE480068FFF72CFE8C
:100A8000002873D120E0FFF705FE801B0228AFD8B5
:100A900020684007F7D560681F210902884329694B
:100AA0000902084360600FE02068400840002060B1
:100AB000FFF7F0FD064604E0FFF7ECFD801B02287F
:100AC00096D820684007F7D42878C00660D5002F54
:100AD0000CD0E86900284AD02068FF210131084382
:100AE0002060FFF7D7FD06462EE0E5E02068800590
:100AF00002D5E8690028A6D0606807214903884329
:100B0000696A084360606068298C0002000A09066F
:100B100008436060686A410B0120C003491C88409B
:100B2000E16809060A0F9149895CC840904908604C
:100B300090480068FFF7D0FD002817D128E0FFF7A4
:100B4000A9FD801B0228A2D820688005F7D560681F
:100B5000072149038843696A084360606068298CFB
:100B60000002000A09060843606011E025E12168DF
:100B7000FF20013081432160FFF78CFD064604E031
:100B8000FFF788FD801B02289AD820688005F7D4DB
:100B90002878794E000724D568690028306910D07C
:100BA000012108433061FFF775FD009005E0FFF774
:100BB00071FD0099401A02287ED830698007F6D569
:100BC0000FE0400840003061FFF764FD009005E051
:100BD000FFF760FD0099401A02286DD83069800740
:100BE000F6D42878400764D500200290A06BC0009E
:100BF00006D4A06B012109070843A06301200290DD
:100C00005E480168C90511D401688215114301606D
:100C1000FFF740FD009005E0FFF73CFD0099401A0A
:100C2000642849D855480068C005F5D5FF20AA6852
:100C30000130824203D131690143316111E0012168
:100C40008902002A07D005231B029A4203D1326988
:100C50000A433261EFE73269824332613069884387
:100C60003061A86800280ED0FFF714FD009006E060
:100C7000FFF710FD0099411A414881421CD83069A4
:100C80008005F5D50DE0FFF705FD009006E0FFF7C4
:100C900001FD0099411A3A4881420DD8306980051A
:100CA000F5D40298002804D0A16B012000078143ED
:100CB000A1632878800600E07EE02ED53148A9693E
:100CC0004314002916D0A26801210A43A260626B76
:100CD0000A436263016A19430162FFF7DBFC0646BF
:100CE00004E0FFF7D7FC801B022865D8A0688007C6
:100CF000F7D512E0A16849084900A160016A99434B
:100D00000162FFF7C7FC064604E0FFF7C3FC801B47
:100D1000022851D8A0688007F7D4A86A002868D0B4
:100D20000C2F4FD0012636060228206805D0B0438C
:100D30002060FFF7AFFC054640E0B0432060FFF7BE
:100D4000A9FC074604E0FFF7A5FCC01B022833D826
:100D500020688001F7D4296BE86AE2680843696B70
:100D6000FD231B049A430FE00010024018230008E3
:100D7000840000207C0000204010024000700040F1
:100D8000881300000000014011430843E060206820
:100D900030432060FFF77EFC054604E0FFF77AFC55
:100DA000401B022808D820688001F7D521E0FFF712
:100DB00071FC401B022801D90320FEBD2068800180
:100DC000F5D416E00128F8D0E06801210904EA6AA8
:100DD000014091420BD10F2189042A6B01409142BD
:100DE00005D1032189050840696B884201D00120A3
:100DF000FEBD0020FEBD0000094910B5401E88421E
:100E000001D9012010BD074C60610321081F00F0CB
:100E100031FA0020A06107202061002010BD0000F1
:100E2000FFFFFF0000E000E0F0B502462032137E35
:100E3000012B1ED0012515760223537606687468AF
:100E4000B3687027BC430F68274377600068AC071E
:100E5000A04205D0084CA04202D0084CA04204D1C8
:100E600080244968A3431943816055760020107699
:100E7000F0BD0220F0BD0000000801400014014058
:100E800070B5050005D02C462034607E002802D0C5
:100E900006E0012070BD00202076284600F010F802
:100EA00002206076291D286800F0A0F90120A077B3
:100EB000A076E076207760776076002070BD000035
:100EC00010B50068084988420CD10848816B10228F
:100ED00011438163002211461120FFF737FC1120D6
:100EE000FFF728FC10BD0000001000400010024079
:100EF000014620314A7E012A01D00120704702229A
:100F00004A760268D36801210B43D36000688A07E0
:100F1000904205D0074A904202D0074A904204D13D
:100F200082685207520F062A02D002680A43026002
:100F3000002070470008014000140140704770B560
:100F40000446006801690025C9438907002915DBAB
:100F5000C168C943890711D4E91E016101202076C7
:100F6000206880698007204602D0FFF7E7FF04E091
:100F700000F078F8204600F076F8257620680169C0
:100F8000C943490717D4C168C943490713D4042189
:100F9000C943016102202076206880698005800FA6
:100FA000204602D0FFF7CAFF04E000F05BF82046BD
:100FB00000F059F8257620680169C943090716D45D
:100FC000C168C943090712D40821C943016104203B
:100FD00020762068C0698007204602D0FFF7AEFF68
:100FE00004E000F03FF8204600F03DF82576206848
:100FF0000169C943C90617D4C168C943C90613D4D6
:101000001021C9430161082020762068C06980054D
:10101000800F204602D0FFF791FF04E000F022F895
:10102000204600F020F8257620680169C943C907E9
:1010300008D1C168C943C90704D1891E016120468E
:1010400000F012F820680169C943490609D4C16853
:10105000C943490605D44021C9430161204600F037
:1010600007F870BD7047704710B501F0B3F810BDB8
:101070007047FEE7F0B587B014216846FFF72DF9F9
:101080002048C16A01252943C162C16A29400591EE
:10109000C16A02242143C162C06A05262040360786
:1010A0000590002218493046FFF7EDFA174F00224D
:1010B000E0213846FFF7E7FA072002940090002469
:1010C0000195694630460394FFF700FA0E480294F2
:1010D000C01F00906946019503943046FFF7F6F96A
:1010E0001B206A4631C269463846FFF7EFF9E02017
:1010F000009002946946019503943846FFF7E6F99B
:1011000007B0F0BD00100240FF870000000400504F
:101110001CB500240F4800940D490194016064211E
:1011200084604160F021C16080214161FFF7A8FE29
:10113000002801D0FFF7B5F90094694605480194ED
:10114000FFF772FE002801D0FFF7ABF91CBD0000CD
:101150000010004088000020FEE77047704710B57F
:10116000FFF79EFA10BD000010B594B03821684614
:10117000FFF7B3F814210EA8FFF7AFF81548016880
:101180000322D2029143C214891801600220012176
:10119000039100900A900024400510210D900B94BB
:1011A0000C9404916846FFF7DFFB002801D072B66B
:1011B000FEE70F200E9003200F9010941194012150
:1011C00012940EA8FFF7C6FA002801D072B6FEE707
:1011D00014B010BD007000407047000010B5024808
:1011E000FFF7ADFE10BD00008800002070B502685A
:1011F00001239B07114C124D984203D0A04201D00D
:10120000A84203D17026B2434E683243984203D0BD
:10121000A04201D0A84204D103231B029A43CB6809
:101220001A4380239A430B691A4302608A68C26298
:10123000096881620121416170BD00000008014020
:1012400000140140F8B5040C8BB2264682B25E430E
:101250000D0C1046370C5843360480190021794193
:1012600016466E43370C36048019794126466E4384
:101270008919F8BD8307FF22DB0E9A408907090E02
:101280009940002808DB830809489B001B18186850
:1012900090430843186070470007000F0838830820
:1012A00004489B001B18D86990430843D8617047D5
:1012B00000E400E000ED00E0FFF7FAF9FFF754FF6B
:1012C000FFF7D8FEFFF724FFFE48FFF711FE0524C5
:1012D000FF25FD4F240701356E00B86801287DD039
:1012E00002287CD00328F8D1012211462046FFF7BE
:1012F000CAF9012202212046FFF7C5F9012208217F
:101300002046FFF7C0F9012210212046FFF7BBF964
:10131000012240212046FFF7B6F901228021204614
:10132000FFF7B1F96420FFF7BFF80022082120463B
:10133000FFF7A9F9002210212046FFF7A4F90022A7
:1013400040212046FFF79FF9002280212046FFF729
:101350009AF94B20FFF7A8F8012231462046FFF703
:1013600092F9012291022046FFF78DF901224021D6
:101370002046FFF788F9012280212046FFF783F9F4
:101380006420FFF791F8002231462046FFF77BF9F1
:101390000121002289022046FFF775F90022402131
:1013A0002046FFF770F9002280212046FFF76BF9F5
:1013B0000120FFF779F80122D1032046FFF763F9F6
:1013C000012291022046FFF75EF9012229462046BC
:1013D000FFF759F901228021204601E026E1E1E3EF
:1013E000FFF751F96420FFF75FF801210022C903DC
:1013F0002046FFF748F90121002289022046FFF725
:1014000042F9002229462046FFF73DF900228021BB
:101410002046FFF738F90120FFF746F80122102196
:101420002046FFF730F9012220212046FFF72BF953
:10143000012229462046FFF726F901228021204675
:10144000FFF721F96420FFF72FF800221021204632
:10145000FFF719F9002220212046FFF714F9002296
:1014600029462046FFF70FF9002280212046FFF78A
:101470000AF90120FFF718F8002201212046FFF7A2
:1014800002F9002202212046FFF7FDF80122022185
:101490002046FFF7F8F8012204212046FFF7F3F871
:1014A000012208212046FFF7EEF8012210212046F4
:1014B000FFF7E9F8012240212046FFF7E4F8012276
:1014C00080212046FFF7DFF86420FEF7EDFF0022C1
:1014D00008212046FFF7D7F8002210212046FFF709
:1014E000D2F8002240212046FFF7CDF800228021CB
:1014F0002046FFF7C8F84B20FEF7D6FF0122314601
:101500002046FFF7C0F8012291022046FFF7BBF802
:10151000012240212046FFF7B6F801228021204613
:10152000FFF7B1F86420FEF7BFFF002231462046E6
:10153000FFF7A9F80121002289022046FFF7A3F84E
:10154000002240212046FFF79EF8002280212046FD
:10155000FFF799F80120FEF7A7FF0122D1032046EB
:10156000FFF791F8012291022046FFF78CF8012243
:1015700029462046FFF787F8012280212046FFF701
:1015800082F86420FEF790FF01210022C903204663
:10159000FFF779F80121002289022046FFF773F84E
:1015A000002229462046FFF76EF8002280212046BF
:1015B000FFF769F80120FEF777FF0122102120468E
:1015C000FFF761F8012220212046FFF75CF8012295
:1015D00029462046FFF757F8012280212046FFF7D1
:1015E00052F86420FEF760FF002210212046FFF72A
:1015F0004AF8002220212046FFF745F8002229461C
:101600002046FFF740F8002280212046FFF73BF8F4
:101610000120FEF749FF002202212046FFF733F8A0
:10162000002204212046FFF72EF856E60122082169
:101630002046FFF728F8012210212046FFF723F863
:10164000012220212046FFF71EF8012240212046DA
:10165000FFF719F8012280212046FFF714F8012234
:1016600029462046FFF70FF8012231462046FFF7B2
:101670000AF8012291022046FFF705F80122D10362
:101680002046FFF700F8012211462046FEF7FBFF37
:101690006420FEF709FF002201212046FEF7F3FF38
:1016A0000120FEF701FF012202212046FEF7EBFF99
:1016B0006420FEF7F9FE002202212046FEF7E3FF38
:1016C000012003E08800002000000020FEF7ECFE6F
:1016D000012204212046FEF7D6FF6420FEF7E4FE37
:1016E000002204212046FEF7CEFF4B20FEF7DCFE51
:1016F000012204212046FEF7C6FF6420FEF7D4FE37
:10170000002204212046FEF7BEFF0120FEF7CCFE9A
:10171000012202212046FEF7B6FF6420FEF7C4FE38
:10172000002202212046FEF7AEFF0120FEF7BCFE9C
:10173000012211462046FEF7A6FF6420FEF7B4FE04
:10174000002201212046FEF79EFF002208212046AC
:10175000FEF799FF002210212046FEF794FF002299
:1017600020212046FEF78FFF002240212046FEF771
:101770008AFF002280212046FEF785FF00222946AD
:101780002046FEF780FF002231462046FEF77BFF11
:101790000121002289022046FEF775FF0121002267
:1017A000C9032046FEF76FFF4B20FEF77DFE0122A6
:1017B00011462046FEF767FF012202212046FEF770
:1017C00062FF012204212046FEF75DFF012208216D
:1017D0002046FEF758FF012210212046FEF753FF56
:1017E000012220212046FEF74EFF6420FEF75CFE1A
:1017F000002208212046FEF746FF00221021204645
:10180000FEF741FF002220212046FEF73CFF012089
:10181000FEF74AFE012240212046FEF734FF012256
:1018200080212046FEF72FFF012229462046FEF7A1
:101830002AFF6420FEF738FE002240212046FEF7F2
:1018400022FF002280212046FEF71DFF00222946AC
:101850002046FEF718FF0120FEF726FE0122314642
:101860002046FEF710FF012291022046FEF70BFFF3
:101870000122D1032046FEF706FF6420FEF714FE86
:10188000002231462046FEF7FEFE01210022890299
:101890002046FEF7F8FE01210022C9032046FEF78C
:1018A000F2FE4B20FEF700FE012231462046FEF7F5
:1018B000EAFE012291022046FEF7E5FE0122D10355
:1018C0002046FEF7E0FE6420FEF7EEFD00223146E2
:1018D0002046FEF7D8FE0121002289022046FEF7AD
:1018E000D2FE01210022C9032046FEF7CCFE0120D2
:1018F000FEF7DAFD012240212046FEF7C4FE012258
:1019000080212046FEF7BFFE012229462046FEF731
:10191000BAFE6420FEF7C8FD002240212046FEF7F3
:10192000B2FE002280212046FEF7ADFE00222946AD
:101930002046FEF7A8FE0120FEF7B6FD0122082191
:101940002046FEF7A0FE012210212046FEF79BFE56
:10195000012220212046FEF796FE6420FEF7A4FD1A
:10196000002208212046FEF78EFE0022102120468C
:10197000FEF789FE002220212046FEF784FE01208A
:10198000FEF792FD002201212046FEF77CFE002298
:1019900002212046FEF777FE002204212046FEF7B2
:1019A00072FE4B20FEF780FD012211462046FEF715
:1019B0006AFE012202212046FEF765FE0122042173
:1019C0002046FEF760FE012208212046FEF75BFE5E
:1019D000012240212046FEF756FE012231462046D4
:1019E000FEF751FE6420FEF75FFD0022082120462D
:1019F000FEF749FE002240212046FEF744FE002269
:101A000031462046FEF73FFE0120FEF74DFD012244
:101A100010212046FEF737FE012280212046FEF7E6
:101A200032FE012291022046FEF72DFE6420FEF7D1
:101A30003BFD002210212046FEF725FE00228021DA
:101A40002046FEF720FE0121002289022046FEF7F3
:101A50001AFE0120FEF728FD012220212046FEF774
:101A600012FE012229462046FEF70DFE0122D10377
:101A70002046FEF708FE6420FEF716FD0022202116
:101A80002046FEF700FE002229462046FEF7FBFD19
:101A900001210022C9032046FEF7F5FD4B20FEF789
:101AA00003FD012220212046FEF7EDFD01222946FB
:101AB0002046FEF7E8FD0122D1032046FEF7E3FDB4
:101AC0006420FEF7F1FC002220212046FEF7DBFD1A
:101AD000002229462046FEF7D6FD01210022C90337
:101AE0002046FEF7D0FD0120FEF7DEFC012210218A
:101AF0002046FEF7C8FD012280212046FEF7C3FDE7
:101B0000012291022046FEF7BEFD6420FEF7CCFCC8
:101B1000002210212046FEF7B6FD0022802120463B
:101B2000FEF7B1FD0121002289022046FEF7ABFD40
:101B30000120FEF7B9FC012208212046FEF7A3FD93
:101B4000012240212046FEF79EFD0122314620461B
:101B5000FEF799FD6420FEF7A7FC0022082120462D
:101B6000FEF791FD002240212046FEF78CFD002269
:101B700031462046FEF787FD0120FEF795FC002246
:101B800001212046FEF77FFD002202212046FEF7BC
:101B90007AFD002204212046FEF775FD4B20FEF75A
:101BA00083FC42E5012211462046FEF76CFD01222E
:101BB00008212046FEF767FD6420FEF775FC012230
:101BC00010212046FEF75FFD6420FEF76DFC012228
:101BD00020212046FEF757FD6420FEF765FC012218
:101BE00029462046FEF74FFD6420FEF75DFC0122EA
:101BF000D1032046FEF747FD6420FEF755FC012285
:101C000091022046FEF73FFD6420FEF74DFC0122C5
:101C100031462046FEF737FD6420FEF745FC0122E1
:101C200040212046FEF72FFD6420FEF73DFC0122F7
:101C300080212046FEF727FD6420FEF735FC0022B8
:101C400008212046FEF71FFD002210212046FEF746
:101C50001AFD002220212046FEF715FD002240211A
:101C60002046FEF710FD002229462046FEF70BFD18
:101C7000002280212046FEF706FD00223146204644
:101C8000FEF701FD0121002289022046FEF7FBFC40
:101C900001210022C9032046FEF7F5FC4B20FEF788
:101CA00003FC002201212046FEF7EDFC0122022167
:101CB0002046FEF7E8FC012208212046FEF7E3FC5F
:101CC0006420FEF7F1FB012210212046FEF7DBFC29
:101CD0006420FEF7E9FB012220212046FEF7D3FC19
:101CE0006420FEF7E1FB012229462046FEF7CBFCEB
:101CF0006420FEF7D9FB0122D1032046FEF7C3FC86
:101D00006420FEF7D1FB012291022046FEF7BBFCC6
:101D10006420FEF7C9FB012231462046FEF7B3FCE2
:101D20006420FEF7C1FB012240212046FEF7ABFCF8
:101D30006420FEF7B9FB012280212046FEF7A3FCB8
:101D40006420FEF7B1FB002208212046FEF79BFC31
:101D5000002210212046FEF796FC0022202120467A
:101D6000FEF791FC002240212046FEF78CFC002269
:101D700029462046FEF787FC002280212046FEF7F8
:101D800082FC002231462046FEF77DFC0121002224
:101D900089022046FEF777FC01210022C903204674
:101DA000FEF771FC4B20FEF77FFB0022022120464C
:101DB000FEF769FC012204212046FEF764FC0122A3
:101DC00008212046FEF75FFC6420FEF76DFB012230
:101DD00010212046FEF757FC6420FEF765FB012228
:101DE00020212046FEF74FFC6420FEF75DFB012218
:101DF00029462046FEF747FC6420FEF755FB0122EA
:101E0000D1032046FEF73FFC6420FEF74DFB012284
:101E100091022046FEF737FC6420FEF745FB0122C5
:101E200031462046FEF72FFC6420FEF73DFB0122E1
:101E300040212046FEF727FC6420FEF735FB0122F7
:101E400080212046FEF71FFC6420FEF72DFB0022B8
:101E500008212046FEF717FC002210212046FEF73D
:101E600012FC002220212046FEF70DFC002240211A
:101E70002046FEF708FC002229462046FEF703FC18
:101E8000002280212046FEF7FEFB0022314620463C
:101E9000FEF7F9FB0121002289022046FEF7F3FB41
:101EA00001210022C9032046FEF7EDFB4B20FEF77F
:101EB000FBFA002204212046FEF7E5FB0122042163
:101EC0002046FEF7E0FB012208212046FEF7DBFB5F
:101ED0006420FEF7E9FA012210212046FEF7D3FB29
:101EE0006420FEF7E1FA012220212046FEF7CBFB19
:101EF0006420FEF7D9FA012229462046FEF7C3FBEB
:101F00006420FEF7D1FA0122D1032046FEF7BBFB85
:101F10006420FEF7C9FA012291022046FEF7B3FBC6
:101F20006420FEF7C1FA012231462046FEF7ABFBE2
:101F30006420FEF7B9FA012240212046FEF7A3FBF8
:101F40006420FEF7B1FA012280212046FEF79BFBB8
:101F50006420FEF7A9FA002208212046FEF793FB31
:101F6000002210212046FEF78EFB00222021204671
:101F7000FEF789FB002240212046FEF784FB002269
:101F800029462046FEF77FFB002280212046FEF7EF
:101F90007AFB002231462046FEF775FB0121002224
:101FA00089022046FEF76FFB01210022C90320466B
:101FB000FEF769FB4B20FEF777FA0022042120464A
:101FC000FEF761FB012202212046FEF75CFB0122A5
:101FD00008212046FEF757FB6420FEF765FA012230
:101FE00010212046FEF74FFB6420FEF75DFA012228
:101FF00020212046FEF747FB6420FEF755FA012218
:1020000029462046FEF73FFB6420FEF74DFA0122E9
:10201000D1032046FEF737FB6420FEF745FA012284
:1020200091022046FEF72FFB6420FEF73DFA0122C5
:1020300031462046FEF727FB6420FEF735FA0122E1
:1020400040212046FEF71FFB6420FEF72DFA0122F7
:1020500080212046FEF717FB6420FEF725FA0022B8
:1020600008212046FEF70FFB002210212046FEF734
:102070000AFB002220212046FEF705FB002240211A
:102080002046FEF700FB002229462046FEF7FBFA19
:10209000002280212046FEF7F6FA00223146204633
:1020A000FEF7F1FA0121002289022046FEF7EBFA41
:1020B00001210022C9032046FEF7E5FA4B20FEF776
:1020C000F3F9002202212046FEF7DDFA0122114633
:1020D0002046FEF7D8FA012208212046FEF7D3FA5F
:1020E0006420FEF7E1F9012210212046FEF7CBFA29
:1020F0006420FEF7D9F9012220212046FEF7C3FA19
:102100006420FEF7D1F9012229462046FEF7BBFAEA
:102110006420FEF7C9F90122D1032046FEF7B3FA85
:102120006420FEF7C1F9012291022046FEF7ABFAC6
:102130006420FEF7B9F9012231462046FEF7A3FAE2
:102140006420FEF7B1F9012240212046FEF79BFAF8
:102150006420FEF7A9F9012280212046FEF793FAB8
:102160006420FEF7A1F9002208212046FEF78BFA31
:10217000002210212046FEF786FA00222021204668
:10218000FEF781FA002240212046FEF77CFA002269
:1021900080212046FEF777FA002229462046FEF7E6
:1021A00072FA002231462046FEF76DFA0121002224
:1021B00089022046FEF767FA01210022C903204662
:1021C000FEF761FA4B20FEF76FF900220121FFF7BD
:1021D00029FA0000F8B54E4C0026206801274D4D25
:1021E000012819D0022846D0032874D101222021C9
:1021F0002846FEF748FA012240212846FEF743FA16
:10220000002280212846FEF73EFA01212846FEF7EB
:1022100035FA002860D061E0002220212846FEF730
:1022200032FA012240212846FEF72DFA01228021B0
:102230002846FEF728FA01212846FEF71FFA002853
:1022400000D1A76002212846FEF718FA002801D124
:102250000420A06008212846FEF710FA002801D1CA
:102260000720A06010212846FEF708FA002800D1B8
:10227000A66002202EE0012220212846FEF703FA64
:10228000002240212846FEF7FEF90122802128463F
:10229000FEF7F9F901212846FEF7F0F9002801D1EF
:1022A0000220A06002212846FEF7E8F9002801D1AB
:1022B0000520A06008212846FEF7E0F9002801D19A
:1022C0000820A06010212846FEF7D8F9002800D188
:1022D000A66003202060F8BD0320A06002212846EC
:1022E000FEF7CCF9002801D10620A060082128467D
:1022F000FEF7C4F9002801D10920A060102128466A
:10230000FEF7BCF9002800D1A6602760F8BD0000E8
:102310000000002000040050000000000000000049
:102320000102030406070809030406080C1018201C
:102330003000000054230008000000208800000046
:1023400004010008DC23000888000020A00600002B
:102350002001000801000000000000000000000053
:10236000000000000000000000000000000000006D
:10237000010000000000000000000000000000005C
:10238000000000000000000001000000000000004C
:10239000010000000100000001000000000000003A
:1023A000010000000000000000000000000000002C
:1023B000000000000000000001000000000000001C
:1023C000000000000000000000000000010000000C
:0C23D000040000000000000000002000DD
:04000005080000C12E
:00000001FF
